{
	"contracts/Test.sol": {
		"Test": {
			"abi": [
				{
					"anonymous": false,
					"inputs": [
						{
							"indexed": false,
							"internalType": "string",
							"name": "message",
							"type": "string"
						}
					],
					"name": "ItWorks",
					"type": "event"
				},
				{
					"inputs": [
						{
							"internalType": "string",
							"name": "message",
							"type": "string"
						}
					],
					"name": "cartesiCallback",
					"outputs": [],
					"stateMutability": "nonpayable",
					"type": "function"
				},
				{
					"inputs": [],
					"name": "foo",
					"outputs": [],
					"stateMutability": "nonpayable",
					"type": "function"
				}
			],
			"devdoc": {
				"kind": "dev",
				"methods": {},
				"version": 1
			},
			"evm": {
				"assembly": "    /* \"contracts/Test.sol\":138:596  contract Test {... */\n  mstore(0x40, 0x80)\n  callvalue\n  dup1\n  iszero\n  tag_1\n  jumpi\n  0x00\n  dup1\n  revert\ntag_1:\n  pop\n  dataSize(sub_0)\n  dup1\n  dataOffset(sub_0)\n  0x00\n  codecopy\n  0x00\n  return\nstop\n\nsub_0: assembly {\n        /* \"contracts/Test.sol\":138:596  contract Test {... */\n      mstore(0x40, 0x80)\n      callvalue\n      dup1\n      iszero\n      tag_1\n      jumpi\n      0x00\n      dup1\n      revert\n    tag_1:\n      pop\n      jumpi(tag_2, lt(calldatasize, 0x04))\n      shr(0xe0, calldataload(0x00))\n      dup1\n      0xc2985578\n      eq\n      tag_3\n      jumpi\n      dup1\n      0xefe99d94\n      eq\n      tag_4\n      jumpi\n    tag_2:\n      0x00\n      dup1\n      revert\n        /* \"contracts/Test.sol\":466:594  function foo() external {... */\n    tag_3:\n      tag_5\n      tag_6\n      jump\t// in\n    tag_5:\n      stop\n        /* \"contracts/Test.sol\":363:460  function cartesiCallback(string calldata message) external {... */\n    tag_4:\n      tag_7\n      0x04\n      dup1\n      calldatasize\n      sub\n      dup2\n      add\n      swap1\n      tag_8\n      swap2\n      swap1\n      tag_9\n      jump\t// in\n    tag_8:\n      tag_10\n      jump\t// in\n    tag_7:\n      stop\n        /* \"contracts/Test.sol\":466:594  function foo() external {... */\n    tag_6:\n        /* \"contracts/Test.sol\":274:316  0xeA8538B194742b992B19e694C13D63120908880e */\n      0xea8538b194742b992b19e694c13d63120908880e\n        /* \"contracts/Test.sol\":500:537  IInputBox(cartesiInputFacet).addInput */\n      0xffffffffffffffffffffffffffffffffffffffff\n      and\n      0xf32078e8\n        /* \"contracts/Test.sol\":538:586  bytes('{\"address\":address(this), \"body\":\"7+2\"}') */\n      mload(0x40)\n      dup1\n      0x60\n      add\n      0x40\n      mstore\n      dup1\n      0x27\n      dup2\n      mstore\n      0x20\n      add\n      data_cb8327d4875e5b08efc31a17767f80b50370affcf91e9970e9b560bfe4a76a3f\n      0x27\n      swap2\n      codecopy\n        /* \"contracts/Test.sol\":500:587  IInputBox(cartesiInputFacet).addInput(bytes('{\"address\":address(this), \"body\":\"7+2\"}')) */\n      mload(0x40)\n      dup3\n      0xffffffff\n      and\n      0xe0\n      shl\n      dup2\n      mstore\n      0x04\n      add\n      tag_12\n      swap2\n      swap1\n      tag_13\n      jump\t// in\n    tag_12:\n      0x20\n      mload(0x40)\n      dup1\n      dup4\n      sub\n      dup2\n      0x00\n      dup8\n      gas\n      call\n      iszero\n      dup1\n      iszero\n      tag_15\n      jumpi\n      returndatasize\n      0x00\n      dup1\n      returndatacopy\n      revert(0x00, returndatasize)\n    tag_15:\n      pop\n      pop\n      pop\n      pop\n      mload(0x40)\n      returndatasize\n      not(0x1f)\n      0x1f\n      dup3\n      add\n      and\n      dup3\n      add\n      dup1\n      0x40\n      mstore\n      pop\n      dup2\n      add\n      swap1\n      tag_16\n      swap2\n      swap1\n      tag_17\n      jump\t// in\n    tag_16:\n      pop\n        /* \"contracts/Test.sol\":466:594  function foo() external {... */\n      jump\t// out\n        /* \"contracts/Test.sol\":363:460  function cartesiCallback(string calldata message) external {... */\n    tag_10:\n        /* \"contracts/Test.sol\":437:453  ItWorks(message) */\n      0x9f5fa3e0e9995d054281248c1c097df9aeb14955d58e0099d26fd8cc7499f405\n        /* \"contracts/Test.sol\":445:452  message */\n      dup3\n      dup3\n        /* \"contracts/Test.sol\":437:453  ItWorks(message) */\n      mload(0x40)\n      tag_19\n      swap3\n      swap2\n      swap1\n      tag_20\n      jump\t// in\n    tag_19:\n      mload(0x40)\n      dup1\n      swap2\n      sub\n      swap1\n      log1\n        /* \"contracts/Test.sol\":363:460  function cartesiCallback(string calldata message) external {... */\n      pop\n      pop\n      jump\t// out\n        /* \"#utility.yul\":88:205   */\n    tag_22:\n        /* \"#utility.yul\":197:198   */\n      0x00\n        /* \"#utility.yul\":194:195   */\n      dup1\n        /* \"#utility.yul\":187:199   */\n      revert\n        /* \"#utility.yul\":211:328   */\n    tag_23:\n        /* \"#utility.yul\":320:321   */\n      0x00\n        /* \"#utility.yul\":317:318   */\n      dup1\n        /* \"#utility.yul\":310:322   */\n      revert\n        /* \"#utility.yul\":334:451   */\n    tag_24:\n        /* \"#utility.yul\":443:444   */\n      0x00\n        /* \"#utility.yul\":440:441   */\n      dup1\n        /* \"#utility.yul\":433:445   */\n      revert\n        /* \"#utility.yul\":457:574   */\n    tag_25:\n        /* \"#utility.yul\":566:567   */\n      0x00\n        /* \"#utility.yul\":563:564   */\n      dup1\n        /* \"#utility.yul\":556:568   */\n      revert\n        /* \"#utility.yul\":580:697   */\n    tag_26:\n        /* \"#utility.yul\":689:690   */\n      0x00\n        /* \"#utility.yul\":686:687   */\n      dup1\n        /* \"#utility.yul\":679:691   */\n      revert\n        /* \"#utility.yul\":717:1270   */\n    tag_27:\n        /* \"#utility.yul\":775:783   */\n      0x00\n        /* \"#utility.yul\":785:791   */\n      dup1\n        /* \"#utility.yul\":835:838   */\n      dup4\n        /* \"#utility.yul\":828:832   */\n      0x1f\n        /* \"#utility.yul\":820:826   */\n      dup5\n        /* \"#utility.yul\":816:833   */\n      add\n        /* \"#utility.yul\":812:839   */\n      slt\n        /* \"#utility.yul\":802:924   */\n      tag_47\n      jumpi\n        /* \"#utility.yul\":843:922   */\n      tag_48\n      tag_24\n      jump\t// in\n    tag_48:\n        /* \"#utility.yul\":802:924   */\n    tag_47:\n        /* \"#utility.yul\":956:962   */\n      dup3\n        /* \"#utility.yul\":943:963   */\n      calldataload\n        /* \"#utility.yul\":933:963   */\n      swap1\n      pop\n        /* \"#utility.yul\":986:1004   */\n      0xffffffffffffffff\n        /* \"#utility.yul\":978:984   */\n      dup2\n        /* \"#utility.yul\":975:1005   */\n      gt\n        /* \"#utility.yul\":972:1089   */\n      iszero\n      tag_49\n      jumpi\n        /* \"#utility.yul\":1008:1087   */\n      tag_50\n      tag_25\n      jump\t// in\n    tag_50:\n        /* \"#utility.yul\":972:1089   */\n    tag_49:\n        /* \"#utility.yul\":1122:1126   */\n      0x20\n        /* \"#utility.yul\":1114:1120   */\n      dup4\n        /* \"#utility.yul\":1110:1127   */\n      add\n        /* \"#utility.yul\":1098:1127   */\n      swap2\n      pop\n        /* \"#utility.yul\":1176:1179   */\n      dup4\n        /* \"#utility.yul\":1168:1172   */\n      0x01\n        /* \"#utility.yul\":1160:1166   */\n      dup3\n        /* \"#utility.yul\":1156:1173   */\n      mul\n        /* \"#utility.yul\":1146:1154   */\n      dup4\n        /* \"#utility.yul\":1142:1174   */\n      add\n        /* \"#utility.yul\":1139:1180   */\n      gt\n        /* \"#utility.yul\":1136:1264   */\n      iszero\n      tag_51\n      jumpi\n        /* \"#utility.yul\":1183:1262   */\n      tag_52\n      tag_26\n      jump\t// in\n    tag_52:\n        /* \"#utility.yul\":1136:1264   */\n    tag_51:\n        /* \"#utility.yul\":717:1270   */\n      swap3\n      pop\n      swap3\n      swap1\n      pop\n      jump\t// out\n        /* \"#utility.yul\":1276:1805   */\n    tag_9:\n        /* \"#utility.yul\":1347:1353   */\n      0x00\n        /* \"#utility.yul\":1355:1361   */\n      dup1\n        /* \"#utility.yul\":1404:1406   */\n      0x20\n        /* \"#utility.yul\":1392:1401   */\n      dup4\n        /* \"#utility.yul\":1383:1390   */\n      dup6\n        /* \"#utility.yul\":1379:1402   */\n      sub\n        /* \"#utility.yul\":1375:1407   */\n      slt\n        /* \"#utility.yul\":1372:1491   */\n      iszero\n      tag_54\n      jumpi\n        /* \"#utility.yul\":1410:1489   */\n      tag_55\n      tag_22\n      jump\t// in\n    tag_55:\n        /* \"#utility.yul\":1372:1491   */\n    tag_54:\n        /* \"#utility.yul\":1558:1559   */\n      0x00\n        /* \"#utility.yul\":1547:1556   */\n      dup4\n        /* \"#utility.yul\":1543:1560   */\n      add\n        /* \"#utility.yul\":1530:1561   */\n      calldataload\n        /* \"#utility.yul\":1588:1606   */\n      0xffffffffffffffff\n        /* \"#utility.yul\":1580:1586   */\n      dup2\n        /* \"#utility.yul\":1577:1607   */\n      gt\n        /* \"#utility.yul\":1574:1691   */\n      iszero\n      tag_56\n      jumpi\n        /* \"#utility.yul\":1610:1689   */\n      tag_57\n      tag_23\n      jump\t// in\n    tag_57:\n        /* \"#utility.yul\":1574:1691   */\n    tag_56:\n        /* \"#utility.yul\":1723:1788   */\n      tag_58\n        /* \"#utility.yul\":1780:1787   */\n      dup6\n        /* \"#utility.yul\":1771:1777   */\n      dup3\n        /* \"#utility.yul\":1760:1769   */\n      dup7\n        /* \"#utility.yul\":1756:1778   */\n      add\n        /* \"#utility.yul\":1723:1788   */\n      tag_27\n      jump\t// in\n    tag_58:\n        /* \"#utility.yul\":1705:1788   */\n      swap3\n      pop\n      swap3\n      pop\n        /* \"#utility.yul\":1501:1798   */\n      pop\n        /* \"#utility.yul\":1276:1805   */\n      swap3\n      pop\n      swap3\n      swap1\n      pop\n      jump\t// out\n        /* \"#utility.yul\":1811:1909   */\n    tag_28:\n        /* \"#utility.yul\":1862:1868   */\n      0x00\n        /* \"#utility.yul\":1896:1901   */\n      dup2\n        /* \"#utility.yul\":1890:1902   */\n      mload\n        /* \"#utility.yul\":1880:1902   */\n      swap1\n      pop\n        /* \"#utility.yul\":1811:1909   */\n      swap2\n      swap1\n      pop\n      jump\t// out\n        /* \"#utility.yul\":1915:2083   */\n    tag_29:\n        /* \"#utility.yul\":1998:2009   */\n      0x00\n        /* \"#utility.yul\":2032:2038   */\n      dup3\n        /* \"#utility.yul\":2027:2030   */\n      dup3\n        /* \"#utility.yul\":2020:2039   */\n      mstore\n        /* \"#utility.yul\":2072:2076   */\n      0x20\n        /* \"#utility.yul\":2067:2070   */\n      dup3\n        /* \"#utility.yul\":2063:2077   */\n      add\n        /* \"#utility.yul\":2048:2077   */\n      swap1\n      pop\n        /* \"#utility.yul\":1915:2083   */\n      swap3\n      swap2\n      pop\n      pop\n      jump\t// out\n        /* \"#utility.yul\":2089:2335   */\n    tag_30:\n        /* \"#utility.yul\":2170:2171   */\n      0x00\n        /* \"#utility.yul\":2180:2293   */\n    tag_62:\n        /* \"#utility.yul\":2194:2200   */\n      dup4\n        /* \"#utility.yul\":2191:2192   */\n      dup2\n        /* \"#utility.yul\":2188:2201   */\n      lt\n        /* \"#utility.yul\":2180:2293   */\n      iszero\n      tag_64\n      jumpi\n        /* \"#utility.yul\":2279:2280   */\n      dup1\n        /* \"#utility.yul\":2274:2277   */\n      dup3\n        /* \"#utility.yul\":2270:2281   */\n      add\n        /* \"#utility.yul\":2264:2282   */\n      mload\n        /* \"#utility.yul\":2260:2261   */\n      dup2\n        /* \"#utility.yul\":2255:2258   */\n      dup5\n        /* \"#utility.yul\":2251:2262   */\n      add\n        /* \"#utility.yul\":2244:2283   */\n      mstore\n        /* \"#utility.yul\":2216:2218   */\n      0x20\n        /* \"#utility.yul\":2213:2214   */\n      dup2\n        /* \"#utility.yul\":2209:2219   */\n      add\n        /* \"#utility.yul\":2204:2219   */\n      swap1\n      pop\n        /* \"#utility.yul\":2180:2293   */\n      jump(tag_62)\n    tag_64:\n        /* \"#utility.yul\":2327:2328   */\n      0x00\n        /* \"#utility.yul\":2318:2324   */\n      dup5\n        /* \"#utility.yul\":2313:2316   */\n      dup5\n        /* \"#utility.yul\":2309:2325   */\n      add\n        /* \"#utility.yul\":2302:2329   */\n      mstore\n        /* \"#utility.yul\":2151:2335   */\n      pop\n        /* \"#utility.yul\":2089:2335   */\n      pop\n      pop\n      pop\n      jump\t// out\n        /* \"#utility.yul\":2341:2443   */\n    tag_31:\n        /* \"#utility.yul\":2382:2388   */\n      0x00\n        /* \"#utility.yul\":2433:2435   */\n      0x1f\n        /* \"#utility.yul\":2429:2436   */\n      not\n        /* \"#utility.yul\":2424:2426   */\n      0x1f\n        /* \"#utility.yul\":2417:2422   */\n      dup4\n        /* \"#utility.yul\":2413:2427   */\n      add\n        /* \"#utility.yul\":2409:2437   */\n      and\n        /* \"#utility.yul\":2399:2437   */\n      swap1\n      pop\n        /* \"#utility.yul\":2341:2443   */\n      swap2\n      swap1\n      pop\n      jump\t// out\n        /* \"#utility.yul\":2449:2822   */\n    tag_32:\n        /* \"#utility.yul\":2535:2538   */\n      0x00\n        /* \"#utility.yul\":2563:2601   */\n      tag_67\n        /* \"#utility.yul\":2595:2600   */\n      dup3\n        /* \"#utility.yul\":2563:2601   */\n      tag_28\n      jump\t// in\n    tag_67:\n        /* \"#utility.yul\":2617:2687   */\n      tag_68\n        /* \"#utility.yul\":2680:2686   */\n      dup2\n        /* \"#utility.yul\":2675:2678   */\n      dup6\n        /* \"#utility.yul\":2617:2687   */\n      tag_29\n      jump\t// in\n    tag_68:\n        /* \"#utility.yul\":2610:2687   */\n      swap4\n      pop\n        /* \"#utility.yul\":2696:2761   */\n      tag_69\n        /* \"#utility.yul\":2754:2760   */\n      dup2\n        /* \"#utility.yul\":2749:2752   */\n      dup6\n        /* \"#utility.yul\":2742:2746   */\n      0x20\n        /* \"#utility.yul\":2735:2740   */\n      dup7\n        /* \"#utility.yul\":2731:2747   */\n      add\n        /* \"#utility.yul\":2696:2761   */\n      tag_30\n      jump\t// in\n    tag_69:\n        /* \"#utility.yul\":2786:2815   */\n      tag_70\n        /* \"#utility.yul\":2808:2814   */\n      dup2\n        /* \"#utility.yul\":2786:2815   */\n      tag_31\n      jump\t// in\n    tag_70:\n        /* \"#utility.yul\":2781:2784   */\n      dup5\n        /* \"#utility.yul\":2777:2816   */\n      add\n        /* \"#utility.yul\":2770:2816   */\n      swap2\n      pop\n        /* \"#utility.yul\":2539:2822   */\n      pop\n        /* \"#utility.yul\":2449:2822   */\n      swap3\n      swap2\n      pop\n      pop\n      jump\t// out\n        /* \"#utility.yul\":2828:3137   */\n    tag_13:\n        /* \"#utility.yul\":2939:2943   */\n      0x00\n        /* \"#utility.yul\":2977:2979   */\n      0x20\n        /* \"#utility.yul\":2966:2975   */\n      dup3\n        /* \"#utility.yul\":2962:2980   */\n      add\n        /* \"#utility.yul\":2954:2980   */\n      swap1\n      pop\n        /* \"#utility.yul\":3026:3035   */\n      dup2\n        /* \"#utility.yul\":3020:3024   */\n      dup2\n        /* \"#utility.yul\":3016:3036   */\n      sub\n        /* \"#utility.yul\":3012:3013   */\n      0x00\n        /* \"#utility.yul\":3001:3010   */\n      dup4\n        /* \"#utility.yul\":2997:3014   */\n      add\n        /* \"#utility.yul\":2990:3037   */\n      mstore\n        /* \"#utility.yul\":3054:3130   */\n      tag_72\n        /* \"#utility.yul\":3125:3129   */\n      dup2\n        /* \"#utility.yul\":3116:3122   */\n      dup5\n        /* \"#utility.yul\":3054:3130   */\n      tag_32\n      jump\t// in\n    tag_72:\n        /* \"#utility.yul\":3046:3130   */\n      swap1\n      pop\n        /* \"#utility.yul\":2828:3137   */\n      swap3\n      swap2\n      pop\n      pop\n      jump\t// out\n        /* \"#utility.yul\":3143:3220   */\n    tag_33:\n        /* \"#utility.yul\":3180:3187   */\n      0x00\n        /* \"#utility.yul\":3209:3214   */\n      dup2\n        /* \"#utility.yul\":3198:3214   */\n      swap1\n      pop\n        /* \"#utility.yul\":3143:3220   */\n      swap2\n      swap1\n      pop\n      jump\t// out\n        /* \"#utility.yul\":3226:3348   */\n    tag_34:\n        /* \"#utility.yul\":3299:3323   */\n      tag_75\n        /* \"#utility.yul\":3317:3322   */\n      dup2\n        /* \"#utility.yul\":3299:3323   */\n      tag_33\n      jump\t// in\n    tag_75:\n        /* \"#utility.yul\":3292:3297   */\n      dup2\n        /* \"#utility.yul\":3289:3324   */\n      eq\n        /* \"#utility.yul\":3279:3342   */\n      tag_76\n      jumpi\n        /* \"#utility.yul\":3338:3339   */\n      0x00\n        /* \"#utility.yul\":3335:3336   */\n      dup1\n        /* \"#utility.yul\":3328:3340   */\n      revert\n        /* \"#utility.yul\":3279:3342   */\n    tag_76:\n        /* \"#utility.yul\":3226:3348   */\n      pop\n      jump\t// out\n        /* \"#utility.yul\":3354:3497   */\n    tag_35:\n        /* \"#utility.yul\":3411:3416   */\n      0x00\n        /* \"#utility.yul\":3442:3448   */\n      dup2\n        /* \"#utility.yul\":3436:3449   */\n      mload\n        /* \"#utility.yul\":3427:3449   */\n      swap1\n      pop\n        /* \"#utility.yul\":3458:3491   */\n      tag_78\n        /* \"#utility.yul\":3485:3490   */\n      dup2\n        /* \"#utility.yul\":3458:3491   */\n      tag_34\n      jump\t// in\n    tag_78:\n        /* \"#utility.yul\":3354:3497   */\n      swap3\n      swap2\n      pop\n      pop\n      jump\t// out\n        /* \"#utility.yul\":3503:3854   */\n    tag_17:\n        /* \"#utility.yul\":3573:3579   */\n      0x00\n        /* \"#utility.yul\":3622:3624   */\n      0x20\n        /* \"#utility.yul\":3610:3619   */\n      dup3\n        /* \"#utility.yul\":3601:3608   */\n      dup5\n        /* \"#utility.yul\":3597:3620   */\n      sub\n        /* \"#utility.yul\":3593:3625   */\n      slt\n        /* \"#utility.yul\":3590:3709   */\n      iszero\n      tag_80\n      jumpi\n        /* \"#utility.yul\":3628:3707   */\n      tag_81\n      tag_22\n      jump\t// in\n    tag_81:\n        /* \"#utility.yul\":3590:3709   */\n    tag_80:\n        /* \"#utility.yul\":3748:3749   */\n      0x00\n        /* \"#utility.yul\":3773:3837   */\n      tag_82\n        /* \"#utility.yul\":3829:3836   */\n      dup5\n        /* \"#utility.yul\":3820:3826   */\n      dup3\n        /* \"#utility.yul\":3809:3818   */\n      dup6\n        /* \"#utility.yul\":3805:3827   */\n      add\n        /* \"#utility.yul\":3773:3837   */\n      tag_35\n      jump\t// in\n    tag_82:\n        /* \"#utility.yul\":3763:3837   */\n      swap2\n      pop\n        /* \"#utility.yul\":3719:3847   */\n      pop\n        /* \"#utility.yul\":3503:3854   */\n      swap3\n      swap2\n      pop\n      pop\n      jump\t// out\n        /* \"#utility.yul\":3860:4029   */\n    tag_36:\n        /* \"#utility.yul\":3944:3955   */\n      0x00\n        /* \"#utility.yul\":3978:3984   */\n      dup3\n        /* \"#utility.yul\":3973:3976   */\n      dup3\n        /* \"#utility.yul\":3966:3985   */\n      mstore\n        /* \"#utility.yul\":4018:4022   */\n      0x20\n        /* \"#utility.yul\":4013:4016   */\n      dup3\n        /* \"#utility.yul\":4009:4023   */\n      add\n        /* \"#utility.yul\":3994:4023   */\n      swap1\n      pop\n        /* \"#utility.yul\":3860:4029   */\n      swap3\n      swap2\n      pop\n      pop\n      jump\t// out\n        /* \"#utility.yul\":4035:4181   */\n    tag_37:\n        /* \"#utility.yul\":4132:4138   */\n      dup3\n        /* \"#utility.yul\":4127:4130   */\n      dup2\n        /* \"#utility.yul\":4122:4125   */\n      dup4\n        /* \"#utility.yul\":4109:4139   */\n      calldatacopy\n        /* \"#utility.yul\":4173:4174   */\n      0x00\n        /* \"#utility.yul\":4164:4170   */\n      dup4\n        /* \"#utility.yul\":4159:4162   */\n      dup4\n        /* \"#utility.yul\":4155:4171   */\n      add\n        /* \"#utility.yul\":4148:4175   */\n      mstore\n        /* \"#utility.yul\":4035:4181   */\n      pop\n      pop\n      pop\n      jump\t// out\n        /* \"#utility.yul\":4211:4528   */\n    tag_38:\n        /* \"#utility.yul\":4309:4312   */\n      0x00\n        /* \"#utility.yul\":4330:4401   */\n      tag_86\n        /* \"#utility.yul\":4394:4400   */\n      dup4\n        /* \"#utility.yul\":4389:4392   */\n      dup6\n        /* \"#utility.yul\":4330:4401   */\n      tag_36\n      jump\t// in\n    tag_86:\n        /* \"#utility.yul\":4323:4401   */\n      swap4\n      pop\n        /* \"#utility.yul\":4411:4467   */\n      tag_87\n        /* \"#utility.yul\":4460:4466   */\n      dup4\n        /* \"#utility.yul\":4455:4458   */\n      dup6\n        /* \"#utility.yul\":4448:4453   */\n      dup5\n        /* \"#utility.yul\":4411:4467   */\n      tag_37\n      jump\t// in\n    tag_87:\n        /* \"#utility.yul\":4492:4521   */\n      tag_88\n        /* \"#utility.yul\":4514:4520   */\n      dup4\n        /* \"#utility.yul\":4492:4521   */\n      tag_31\n      jump\t// in\n    tag_88:\n        /* \"#utility.yul\":4487:4490   */\n      dup5\n        /* \"#utility.yul\":4483:4522   */\n      add\n        /* \"#utility.yul\":4476:4522   */\n      swap1\n      pop\n        /* \"#utility.yul\":4211:4528   */\n      swap4\n      swap3\n      pop\n      pop\n      pop\n      jump\t// out\n        /* \"#utility.yul\":4534:4867   */\n    tag_20:\n        /* \"#utility.yul\":4657:4661   */\n      0x00\n        /* \"#utility.yul\":4695:4697   */\n      0x20\n        /* \"#utility.yul\":4684:4693   */\n      dup3\n        /* \"#utility.yul\":4680:4698   */\n      add\n        /* \"#utility.yul\":4672:4698   */\n      swap1\n      pop\n        /* \"#utility.yul\":4744:4753   */\n      dup2\n        /* \"#utility.yul\":4738:4742   */\n      dup2\n        /* \"#utility.yul\":4734:4754   */\n      sub\n        /* \"#utility.yul\":4730:4731   */\n      0x00\n        /* \"#utility.yul\":4719:4728   */\n      dup4\n        /* \"#utility.yul\":4715:4732   */\n      add\n        /* \"#utility.yul\":4708:4755   */\n      mstore\n        /* \"#utility.yul\":4772:4860   */\n      tag_90\n        /* \"#utility.yul\":4855:4859   */\n      dup2\n        /* \"#utility.yul\":4846:4852   */\n      dup5\n        /* \"#utility.yul\":4838:4844   */\n      dup7\n        /* \"#utility.yul\":4772:4860   */\n      tag_38\n      jump\t// in\n    tag_90:\n        /* \"#utility.yul\":4764:4860   */\n      swap1\n      pop\n        /* \"#utility.yul\":4534:4867   */\n      swap4\n      swap3\n      pop\n      pop\n      pop\n      jump\t// out\n    stop\n    data_cb8327d4875e5b08efc31a17767f80b50370affcf91e9970e9b560bfe4a76a3f 7b2261646472657373223a616464726573732874686973292c2022626f6479223a22372b32227d\n\n    auxdata: 0xa26469706673582212200b74913de1ca948ca81d30f06b84ff295dd6a769fea56aa08fafaebb4b4d90d864736f6c63430008130033\n}\n",
				"bytecode": {
					"linkReferences": {},
					"object": "608060405234801561001057600080fd5b506103e8806100206000396000f3fe608060405234801561001057600080fd5b50600436106100365760003560e01c8063c29855781461003b578063efe99d9414610045575b600080fd5b610043610061565b005b61005f600480360381019061005a91906101b8565b61010c565b005b73ea8538b194742b992b19e694c13d63120908880e73ffffffffffffffffffffffffffffffffffffffff1663f32078e860405180606001604052806027815260200161038c602791396040518263ffffffff1660e01b81526004016100c69190610295565b6020604051808303816000875af11580156100e5573d6000803e3d6000fd5b505050506040513d601f19601f8201168201806040525081019061010991906102ed565b50565b7f9f5fa3e0e9995d054281248c1c097df9aeb14955d58e0099d26fd8cc7499f405828260405161013d929190610367565b60405180910390a15050565b600080fd5b600080fd5b600080fd5b600080fd5b600080fd5b60008083601f84011261017857610177610153565b5b8235905067ffffffffffffffff81111561019557610194610158565b5b6020830191508360018202830111156101b1576101b061015d565b5b9250929050565b600080602083850312156101cf576101ce610149565b5b600083013567ffffffffffffffff8111156101ed576101ec61014e565b5b6101f985828601610162565b92509250509250929050565b600081519050919050565b600082825260208201905092915050565b60005b8381101561023f578082015181840152602081019050610224565b60008484015250505050565b6000601f19601f8301169050919050565b600061026782610205565b6102718185610210565b9350610281818560208601610221565b61028a8161024b565b840191505092915050565b600060208201905081810360008301526102af818461025c565b905092915050565b6000819050919050565b6102ca816102b7565b81146102d557600080fd5b50565b6000815190506102e7816102c1565b92915050565b60006020828403121561030357610302610149565b5b6000610311848285016102d8565b91505092915050565b600082825260208201905092915050565b82818337600083830152505050565b6000610346838561031a565b935061035383858461032b565b61035c8361024b565b840190509392505050565b6000602082019050818103600083015261038281848661033a565b9050939250505056fe7b2261646472657373223a616464726573732874686973292c2022626f6479223a22372b32227da26469706673582212200b74913de1ca948ca81d30f06b84ff295dd6a769fea56aa08fafaebb4b4d90d864736f6c63430008130033",
					"opcodes": "PUSH1 0x80 PUSH1 0x40 MSTORE CALLVALUE DUP1 ISZERO PUSH2 0x10 JUMPI PUSH1 0x0 DUP1 REVERT JUMPDEST POP PUSH2 0x3E8 DUP1 PUSH2 0x20 PUSH1 0x0 CODECOPY PUSH1 0x0 RETURN INVALID PUSH1 0x80 PUSH1 0x40 MSTORE CALLVALUE DUP1 ISZERO PUSH2 0x10 JUMPI PUSH1 0x0 DUP1 REVERT JUMPDEST POP PUSH1 0x4 CALLDATASIZE LT PUSH2 0x36 JUMPI PUSH1 0x0 CALLDATALOAD PUSH1 0xE0 SHR DUP1 PUSH4 0xC2985578 EQ PUSH2 0x3B JUMPI DUP1 PUSH4 0xEFE99D94 EQ PUSH2 0x45 JUMPI JUMPDEST PUSH1 0x0 DUP1 REVERT JUMPDEST PUSH2 0x43 PUSH2 0x61 JUMP JUMPDEST STOP JUMPDEST PUSH2 0x5F PUSH1 0x4 DUP1 CALLDATASIZE SUB DUP2 ADD SWAP1 PUSH2 0x5A SWAP2 SWAP1 PUSH2 0x1B8 JUMP JUMPDEST PUSH2 0x10C JUMP JUMPDEST STOP JUMPDEST PUSH20 0xEA8538B194742B992B19E694C13D63120908880E PUSH20 0xFFFFFFFFFFFFFFFFFFFFFFFFFFFFFFFFFFFFFFFF AND PUSH4 0xF32078E8 PUSH1 0x40 MLOAD DUP1 PUSH1 0x60 ADD PUSH1 0x40 MSTORE DUP1 PUSH1 0x27 DUP2 MSTORE PUSH1 0x20 ADD PUSH2 0x38C PUSH1 0x27 SWAP2 CODECOPY PUSH1 0x40 MLOAD DUP3 PUSH4 0xFFFFFFFF AND PUSH1 0xE0 SHL DUP2 MSTORE PUSH1 0x4 ADD PUSH2 0xC6 SWAP2 SWAP1 PUSH2 0x295 JUMP JUMPDEST PUSH1 0x20 PUSH1 0x40 MLOAD DUP1 DUP4 SUB DUP2 PUSH1 0x0 DUP8 GAS CALL ISZERO DUP1 ISZERO PUSH2 0xE5 JUMPI RETURNDATASIZE PUSH1 0x0 DUP1 RETURNDATACOPY RETURNDATASIZE PUSH1 0x0 REVERT JUMPDEST POP POP POP POP PUSH1 0x40 MLOAD RETURNDATASIZE PUSH1 0x1F NOT PUSH1 0x1F DUP3 ADD AND DUP3 ADD DUP1 PUSH1 0x40 MSTORE POP DUP2 ADD SWAP1 PUSH2 0x109 SWAP2 SWAP1 PUSH2 0x2ED JUMP JUMPDEST POP JUMP JUMPDEST PUSH32 0x9F5FA3E0E9995D054281248C1C097DF9AEB14955D58E0099D26FD8CC7499F405 DUP3 DUP3 PUSH1 0x40 MLOAD PUSH2 0x13D SWAP3 SWAP2 SWAP1 PUSH2 0x367 JUMP JUMPDEST PUSH1 0x40 MLOAD DUP1 SWAP2 SUB SWAP1 LOG1 POP POP JUMP JUMPDEST PUSH1 0x0 DUP1 REVERT JUMPDEST PUSH1 0x0 DUP1 REVERT JUMPDEST PUSH1 0x0 DUP1 REVERT JUMPDEST PUSH1 0x0 DUP1 REVERT JUMPDEST PUSH1 0x0 DUP1 REVERT JUMPDEST PUSH1 0x0 DUP1 DUP4 PUSH1 0x1F DUP5 ADD SLT PUSH2 0x178 JUMPI PUSH2 0x177 PUSH2 0x153 JUMP JUMPDEST JUMPDEST DUP3 CALLDATALOAD SWAP1 POP PUSH8 0xFFFFFFFFFFFFFFFF DUP2 GT ISZERO PUSH2 0x195 JUMPI PUSH2 0x194 PUSH2 0x158 JUMP JUMPDEST JUMPDEST PUSH1 0x20 DUP4 ADD SWAP2 POP DUP4 PUSH1 0x1 DUP3 MUL DUP4 ADD GT ISZERO PUSH2 0x1B1 JUMPI PUSH2 0x1B0 PUSH2 0x15D JUMP JUMPDEST JUMPDEST SWAP3 POP SWAP3 SWAP1 POP JUMP JUMPDEST PUSH1 0x0 DUP1 PUSH1 0x20 DUP4 DUP6 SUB SLT ISZERO PUSH2 0x1CF JUMPI PUSH2 0x1CE PUSH2 0x149 JUMP JUMPDEST JUMPDEST PUSH1 0x0 DUP4 ADD CALLDATALOAD PUSH8 0xFFFFFFFFFFFFFFFF DUP2 GT ISZERO PUSH2 0x1ED JUMPI PUSH2 0x1EC PUSH2 0x14E JUMP JUMPDEST JUMPDEST PUSH2 0x1F9 DUP6 DUP3 DUP7 ADD PUSH2 0x162 JUMP JUMPDEST SWAP3 POP SWAP3 POP POP SWAP3 POP SWAP3 SWAP1 POP JUMP JUMPDEST PUSH1 0x0 DUP2 MLOAD SWAP1 POP SWAP2 SWAP1 POP JUMP JUMPDEST PUSH1 0x0 DUP3 DUP3 MSTORE PUSH1 0x20 DUP3 ADD SWAP1 POP SWAP3 SWAP2 POP POP JUMP JUMPDEST PUSH1 0x0 JUMPDEST DUP4 DUP2 LT ISZERO PUSH2 0x23F JUMPI DUP1 DUP3 ADD MLOAD DUP2 DUP5 ADD MSTORE PUSH1 0x20 DUP2 ADD SWAP1 POP PUSH2 0x224 JUMP JUMPDEST PUSH1 0x0 DUP5 DUP5 ADD MSTORE POP POP POP POP JUMP JUMPDEST PUSH1 0x0 PUSH1 0x1F NOT PUSH1 0x1F DUP4 ADD AND SWAP1 POP SWAP2 SWAP1 POP JUMP JUMPDEST PUSH1 0x0 PUSH2 0x267 DUP3 PUSH2 0x205 JUMP JUMPDEST PUSH2 0x271 DUP2 DUP6 PUSH2 0x210 JUMP JUMPDEST SWAP4 POP PUSH2 0x281 DUP2 DUP6 PUSH1 0x20 DUP7 ADD PUSH2 0x221 JUMP JUMPDEST PUSH2 0x28A DUP2 PUSH2 0x24B JUMP JUMPDEST DUP5 ADD SWAP2 POP POP SWAP3 SWAP2 POP POP JUMP JUMPDEST PUSH1 0x0 PUSH1 0x20 DUP3 ADD SWAP1 POP DUP2 DUP2 SUB PUSH1 0x0 DUP4 ADD MSTORE PUSH2 0x2AF DUP2 DUP5 PUSH2 0x25C JUMP JUMPDEST SWAP1 POP SWAP3 SWAP2 POP POP JUMP JUMPDEST PUSH1 0x0 DUP2 SWAP1 POP SWAP2 SWAP1 POP JUMP JUMPDEST PUSH2 0x2CA DUP2 PUSH2 0x2B7 JUMP JUMPDEST DUP2 EQ PUSH2 0x2D5 JUMPI PUSH1 0x0 DUP1 REVERT JUMPDEST POP JUMP JUMPDEST PUSH1 0x0 DUP2 MLOAD SWAP1 POP PUSH2 0x2E7 DUP2 PUSH2 0x2C1 JUMP JUMPDEST SWAP3 SWAP2 POP POP JUMP JUMPDEST PUSH1 0x0 PUSH1 0x20 DUP3 DUP5 SUB SLT ISZERO PUSH2 0x303 JUMPI PUSH2 0x302 PUSH2 0x149 JUMP JUMPDEST JUMPDEST PUSH1 0x0 PUSH2 0x311 DUP5 DUP3 DUP6 ADD PUSH2 0x2D8 JUMP JUMPDEST SWAP2 POP POP SWAP3 SWAP2 POP POP JUMP JUMPDEST PUSH1 0x0 DUP3 DUP3 MSTORE PUSH1 0x20 DUP3 ADD SWAP1 POP SWAP3 SWAP2 POP POP JUMP JUMPDEST DUP3 DUP2 DUP4 CALLDATACOPY PUSH1 0x0 DUP4 DUP4 ADD MSTORE POP POP POP JUMP JUMPDEST PUSH1 0x0 PUSH2 0x346 DUP4 DUP6 PUSH2 0x31A JUMP JUMPDEST SWAP4 POP PUSH2 0x353 DUP4 DUP6 DUP5 PUSH2 0x32B JUMP JUMPDEST PUSH2 0x35C DUP4 PUSH2 0x24B JUMP JUMPDEST DUP5 ADD SWAP1 POP SWAP4 SWAP3 POP POP POP JUMP JUMPDEST PUSH1 0x0 PUSH1 0x20 DUP3 ADD SWAP1 POP DUP2 DUP2 SUB PUSH1 0x0 DUP4 ADD MSTORE PUSH2 0x382 DUP2 DUP5 DUP7 PUSH2 0x33A JUMP JUMPDEST SWAP1 POP SWAP4 SWAP3 POP POP POP JUMP INVALID PUSH28 0x2261646472657373223A616464726573732874686973292C2022626F PUSH5 0x79223A2237 0x2B ORIGIN 0x22 PUSH30 0xA26469706673582212200B74913DE1CA948CA81D30F06B84FF295DD6A769 INVALID 0xA5 PUSH11 0xA08FAFAEBB4B4D90D86473 PUSH16 0x6C634300081300330000000000000000 "
				},
				"gasEstimates": {
					"creation": {
						"codeDepositCost": "200000",
						"executionCost": "245",
						"totalCost": "200245"
					},
					"external": {
						"cartesiCallback(string)": "infinite",
						"foo()": "infinite"
					}
				},
				"methodIdentifiers": {
					"cartesiCallback(string)": "efe99d94",
					"foo()": "c2985578"
				}
			},
			"storageLayout": {
				"storage": [],
				"types": null
			},
			"userdoc": {
				"kind": "user",
				"methods": {},
				"version": 1
			}
		}
	}
}